{
  "contractName": "TRXED",
  "abi": [
    {
      "constant": true,
      "inputs": [],
      "name": "lastBlock",
      "outputs": [
        {
          "name": "",
          "type": "uint256"
        }
      ],
      "payable": false,
      "stateMutability": "view",
      "type": "function"
    },
    {
      "inputs": [],
      "payable": false,
      "stateMutability": "nonpayable",
      "type": "constructor"
    },
    {
      "anonymous": false,
      "inputs": [
        {
          "indexed": true,
          "name": "from",
          "type": "address"
        },
        {
          "indexed": true,
          "name": "to",
          "type": "address"
        },
        {
          "indexed": false,
          "name": "value",
          "type": "uint256"
        }
      ],
      "name": "Transfer",
      "type": "event"
    },
    {
      "anonymous": false,
      "inputs": [
        {
          "indexed": false,
          "name": "value",
          "type": "uint256"
        }
      ],
      "name": "RandResult",
      "type": "event"
    },
    {
      "constant": false,
      "inputs": [
        {
          "name": "_betAmount",
          "type": "uint256"
        },
        {
          "name": "_betChosen",
          "type": "uint256"
        }
      ],
      "name": "PlaceBet",
      "outputs": [],
      "payable": true,
      "stateMutability": "payable",
      "type": "function"
    },
    {
      "constant": false,
      "inputs": [],
      "name": "generateRandNum",
      "outputs": [],
      "payable": false,
      "stateMutability": "nonpayable",
      "type": "function"
    },
    {
      "constant": false,
      "inputs": [],
      "name": "payWinners",
      "outputs": [
        {
          "name": "",
          "type": "uint256"
        }
      ],
      "payable": false,
      "stateMutability": "nonpayable",
      "type": "function"
    },
    {
      "constant": false,
      "inputs": [],
      "name": "paySmartContract",
      "outputs": [],
      "payable": true,
      "stateMutability": "payable",
      "type": "function"
    },
    {
      "constant": true,
      "inputs": [],
      "name": "returnContractBalance",
      "outputs": [
        {
          "name": "",
          "type": "uint256"
        }
      ],
      "payable": false,
      "stateMutability": "view",
      "type": "function"
    }
  ],
  "bytecode": "0x60806040523480156200001157600080fd5b506000600190505b6034811015620000755760006002828115156200003257fe5b06141562000067576001600a600083815260200190815260200160002060006101000a81548160ff0219169083151502179055505b808060010191505062000019565b6001600d600080815260200190815260200160002060006101000a81548160ff0219169083151502179055506001600d60006034815260200190815260200160002060006101000a81548160ff021916908315150217905550600190505b603481101562000115576001600c600083815260200190815260200160002060006101000a81548160ff021916908315150217905550600a81019050620000d3565b600790505b60348110156200015c576001600c600083815260200190815260200160002060006101000a81548160ff021916908315150217905550600a810190506200011a565b600190505b6034811015620002355760011515600a600083815260200190815260200160002060009054906101000a900460ff1615151480620001c3575060011515600c600083815260200190815260200160002060009054906101000a900460ff161515145b80620001f3575060011515600d600083815260200190815260200160002060009054906101000a900460ff161515145b151562000227576001600b600083815260200190815260200160002060006101000a81548160ff0219169083151502179055505b808060010191505062000161565b43600081905550506113c6806200024d6000396000f300608060405260043610610078576000357c0100000000000000000000000000000000000000000000000000000000900463ffffffff1680631b20bfaa1461007d5780635337448e146100875780637bc76a17146100b2578063806b984f146100c95780638ce8dd06146100f4578063c88a40981461011f575b600080fd5b610085610149565b005b34801561009357600080fd5b5061009c61015a565b6040518082815260200191505060405180910390f35b3480156100be57600080fd5b506100c7610d37565b005b3480156100d557600080fd5b506100de610d47565b6040518082815260200191505060405180910390f35b34801561010057600080fd5b50610109610d4d565b6040518082815260200191505060405180910390f35b6101476004803603810190808035906020019092919080359060200190929190505050610d6c565b005b60003411151561015857600080fd5b565b6000806000610167610d37565b7fae647d0a561c714db3d604237e819cc8dc4253d859f6d92bc82b7cc93e2749f16001546040518082815260200191505060405180910390a1600a6000600154815260200190815260200160002060009054906101000a900460ff161561043a57600091505b60058054905082101561043557600090505b600e60006005848154811015156101f257fe5b9060005260206000200160009054906101000a900473ffffffffffffffffffffffffffffffffffffffff1673ffffffffffffffffffffffffffffffffffffffff1673ffffffffffffffffffffffffffffffffffffffff16815260200190815260200160002080549050811015610428576002600e600060058581548110151561027757fe5b9060005260206000200160009054906101000a900473ffffffffffffffffffffffffffffffffffffffff1673ffffffffffffffffffffffffffffffffffffffff1673ffffffffffffffffffffffffffffffffffffffff168152602001908152602001600020828154811015156102e957fe5b906000526020600020906002020160000154141561041b5760058281548110151561031057fe5b9060005260206000200160009054906101000a900473ffffffffffffffffffffffffffffffffffffffff1673ffffffffffffffffffffffffffffffffffffffff166108fc6002600e600060058781548110151561036957fe5b9060005260206000200160009054906101000a900473ffffffffffffffffffffffffffffffffffffffff1673ffffffffffffffffffffffffffffffffffffffff1673ffffffffffffffffffffffffffffffffffffffff168152602001908152602001600020848154811015156103db57fe5b906000526020600020906002020160010154029081150290604051600060405180830381858888f19350505050158015610419573d6000803e3d6000fd5b505b80806001019150506101df565b81806001019250506101cd565b610c07565b600b6000600154815260200190815260200160002060009054906101000a900460ff16156106d457600091505b6006805490508210156106cf57600090505b600e600060068481548110151561048c57fe5b9060005260206000200160009054906101000a900473ffffffffffffffffffffffffffffffffffffffff1673ffffffffffffffffffffffffffffffffffffffff1673ffffffffffffffffffffffffffffffffffffffff168152602001908152602001600020805490508110156106c2576003600e600060068581548110151561051157fe5b9060005260206000200160009054906101000a900473ffffffffffffffffffffffffffffffffffffffff1673ffffffffffffffffffffffffffffffffffffffff1673ffffffffffffffffffffffffffffffffffffffff1681526020019081526020016000208281548110151561058357fe5b90600052602060002090600202016000015414156106b5576006828154811015156105aa57fe5b9060005260206000200160009054906101000a900473ffffffffffffffffffffffffffffffffffffffff1673ffffffffffffffffffffffffffffffffffffffff166108fc6003600e600060068781548110151561060357fe5b9060005260206000200160009054906101000a900473ffffffffffffffffffffffffffffffffffffffff1673ffffffffffffffffffffffffffffffffffffffff1673ffffffffffffffffffffffffffffffffffffffff1681526020019081526020016000208481548110151561067557fe5b906000526020600020906002020160010154029081150290604051600060405180830381858888f193505050501580156106b3573d6000803e3d6000fd5b505b8080600101915050610479565b8180600101925050610467565b610c06565b600c6000600154815260200190815260200160002060009054906101000a900460ff161561096e57600091505b60078054905082101561096957600090505b600e600060078481548110151561072657fe5b9060005260206000200160009054906101000a900473ffffffffffffffffffffffffffffffffffffffff1673ffffffffffffffffffffffffffffffffffffffff1673ffffffffffffffffffffffffffffffffffffffff1681526020019081526020016000208054905081101561095c576005600e60006007858154811015156107ab57fe5b9060005260206000200160009054906101000a900473ffffffffffffffffffffffffffffffffffffffff1673ffffffffffffffffffffffffffffffffffffffff1673ffffffffffffffffffffffffffffffffffffffff1681526020019081526020016000208281548110151561081d57fe5b906000526020600020906002020160000154141561094f5760078281548110151561084457fe5b9060005260206000200160009054906101000a900473ffffffffffffffffffffffffffffffffffffffff1673ffffffffffffffffffffffffffffffffffffffff166108fc6005600e600060078781548110151561089d57fe5b9060005260206000200160009054906101000a900473ffffffffffffffffffffffffffffffffffffffff1673ffffffffffffffffffffffffffffffffffffffff1673ffffffffffffffffffffffffffffffffffffffff1681526020019081526020016000208481548110151561090f57fe5b906000526020600020906002020160010154029081150290604051600060405180830381858888f1935050505015801561094d573d6000803e3d6000fd5b505b8080600101915050610713565b8180600101925050610701565b610c05565b600d6000600154815260200190815260200160002060009054906101000a900460ff1615610c0457600091505b600880549050821015610c0357600090505b600e60006008848154811015156109c057fe5b9060005260206000200160009054906101000a900473ffffffffffffffffffffffffffffffffffffffff1673ffffffffffffffffffffffffffffffffffffffff1673ffffffffffffffffffffffffffffffffffffffff16815260200190815260200160002080549050811015610bf6576032600e6000600885815481101515610a4557fe5b9060005260206000200160009054906101000a900473ffffffffffffffffffffffffffffffffffffffff1673ffffffffffffffffffffffffffffffffffffffff1673ffffffffffffffffffffffffffffffffffffffff16815260200190815260200160002082815481101515610ab757fe5b9060005260206000209060020201600001541415610be957600882815481101515610ade57fe5b9060005260206000200160009054906101000a900473ffffffffffffffffffffffffffffffffffffffff1673ffffffffffffffffffffffffffffffffffffffff166108fc6032600e6000600887815481101515610b3757fe5b9060005260206000200160009054906101000a900473ffffffffffffffffffffffffffffffffffffffff1673ffffffffffffffffffffffffffffffffffffffff1673ffffffffffffffffffffffffffffffffffffffff16815260200190815260200160002084815481101515610ba957fe5b906000526020600020906002020160010154029081150290604051600060405180830381858888f19350505050158015610be7573d6000803e3d6000fd5b505b80806001019150506109ad565b818060010192505061099b565b5b5b5b5b600e60003373ffffffffffffffffffffffffffffffffffffffff1673ffffffffffffffffffffffffffffffffffffffff1681526020019081526020016000206000610c5291906112e7565b600091505b600980549050821015610cf557600e6000600984815481101515610c7757fe5b9060005260206000200160009054906101000a900473ffffffffffffffffffffffffffffffffffffffff1673ffffffffffffffffffffffffffffffffffffffff1673ffffffffffffffffffffffffffffffffffffffff1681526020019081526020016000206000610ce891906112e7565b8180600101925050610c57565b60056000610d03919061130b565b60066000610d11919061130b565b60076000610d1f919061130b565b60086000610d2d919061130b565b6001549250505090565b610d3f611055565b600181905550565b60005481565b60003073ffffffffffffffffffffffffffffffffffffffff1631905090565b610d7461132c565b8234141515610d8257600080fd5b60408051908101604052808381526020018481525090506002821415610e0d5760053390806001815401808255809150509060018203906000526020600020016000909192909190916101000a81548173ffffffffffffffffffffffffffffffffffffffff021916908373ffffffffffffffffffffffffffffffffffffffff16021790555050610f68565b6003821415610e815760063390806001815401808255809150509060018203906000526020600020016000909192909190916101000a81548173ffffffffffffffffffffffffffffffffffffffff021916908373ffffffffffffffffffffffffffffffffffffffff16021790555050610f67565b6005821415610ef55760073390806001815401808255809150509060018203906000526020600020016000909192909190916101000a81548173ffffffffffffffffffffffffffffffffffffffff021916908373ffffffffffffffffffffffffffffffffffffffff16021790555050610f66565b6032821415610f655760083390806001815401808255809150509060018203906000526020600020016000909192909190916101000a81548173ffffffffffffffffffffffffffffffffffffffff021916908373ffffffffffffffffffffffffffffffffffffffff160217905550505b5b5b5b60093390806001815401808255809150509060018203906000526020600020016000909192909190916101000a81548173ffffffffffffffffffffffffffffffffffffffff021916908373ffffffffffffffffffffffffffffffffffffffff16021790555050600e60003373ffffffffffffffffffffffffffffffffffffffff1673ffffffffffffffffffffffffffffffffffffffff16815260200190815260200160002081908060018154018082558091505090600182039060005260206000209060020201600090919290919091506000820151816000015560208201518160010155505050505050565b6000806000604c60024233600054604051602001808481526020018373ffffffffffffffffffffffffffffffffffffffff1673ffffffffffffffffffffffffffffffffffffffff166c0100000000000000000000000002815260140182815260200193505050506040516020818303038152906040526040518082805190602001908083835b60208310151561110057805182526020820191506020810190506020830392506110db565b6001836020036101000a0380198251168184511680821785525050505050509050019150506020604051808303816000865af1158015611144573d6000803e3d6000fd5b5050506040513d602081101561115957600080fd5b81019080805190602001909291905050506001900481151561117757fe5b069150600080815480929190600101919050555060348211156112df576000808154809291906001019190505550604c60024233600054604051602001808481526020018373ffffffffffffffffffffffffffffffffffffffff1673ffffffffffffffffffffffffffffffffffffffff166c0100000000000000000000000002815260140182815260200193505050506040516020818303038152906040526040518082805190602001908083835b60208310151561124b5780518252602082019150602081019050602083039250611226565b6001836020036101000a0380198251168184511680821785525050505050509050019150506020604051808303816000865af115801561128f573d6000803e3d6000fd5b5050506040513d60208110156112a457600080fd5b8101908080519060200190929190505050600190048115156112c257fe5b06905060348111156112d85781810391506112de565b80820391505b5b819250505090565b50805460008255600202906000526020600020908101906113089190611346565b50565b50805460008255906000526020600020908101906113299190611375565b50565b604080519081016040528060008152602001600081525090565b61137291905b8082111561136e5760008082016000905560018201600090555060020161134c565b5090565b90565b61139791905b8082111561139357600081600090555060010161137b565b5090565b905600a165627a7a7230582053cdae9e5de639eefdbb0cbeb8de99f5f4be911924c52dec4738f2b5f39da9290029",
  "source": "pragma solidity ^0.4.20;\r\ncontract TRXED {\r\n    uint public lastBlock;\r\n    uint winningNum;\r\n    address[] accounts;\r\n    mapping(string => uint) luckyNum;\r\n    mapping(address => uint) balances;\r\n    address[] twoMultiplyer;\r\n    address[] threeMultiplyer;\r\n    address[] fiveMultiplyer;\r\n    address[] fiftyMultiplyer;\r\n    address[] allBets;\r\n\r\n    struct betType{\r\n        uint betChosen;\r\n        uint256 value;\r\n    }\r\n    mapping (uint => bool) twoMultiplyerValue;\r\n    mapping (uint => bool) threeMultiplyerValue;\r\n    mapping (uint => bool) fiveMultiplyerValue;\r\n    mapping (uint => bool) fiftyMultiplyerValue;\r\n    mapping(address => betType[]) userBets;\r\n\r\n    event Transfer(address indexed from, address indexed to, uint256 value);\r\n    event RandResult(uint256 value);\r\n\r\n    constructor()public{ //Runs only at creation\r\n        for (uint i = 1;i<52;i++){\r\n            if(i % 2 ==0){\r\n                twoMultiplyerValue[i] = true;\r\n            }\r\n        }\r\n\r\n        fiftyMultiplyerValue[0] =true;\r\n        fiftyMultiplyerValue[52] =true;\r\n        for ( i = 1;i<52;i+=10){\r\n            fiveMultiplyerValue[i] = true;\r\n        }\r\n        for ( i = 7;i<52;i+=10){\r\n            fiveMultiplyerValue[i] = true;\r\n        }\r\n        for (i = 1;i<52;i++){\r\n            if(!((twoMultiplyerValue[i]==true) || (fiveMultiplyerValue[i]==true) || (fiftyMultiplyerValue[i]==true))){\r\n                threeMultiplyerValue[i] =true;\r\n            }\r\n\r\n        }\r\n\r\n\r\n        lastBlock = block.number;\r\n    }\r\n\r\n    function PlaceBet(uint256 _betAmount,uint _betChosen) public payable{\r\n        require(msg.value == _betAmount);\r\n        betType memory placeBet = betType({\r\n            betChosen: _betChosen,\r\n            value: _betAmount\r\n            });\r\n        if(_betChosen == 2){\r\n            twoMultiplyer.push(msg.sender);\r\n\r\n        } else if(_betChosen == 3){\r\n            threeMultiplyer.push(msg.sender);\r\n\r\n        } else if(_betChosen == 5){\r\n            fiveMultiplyer.push(msg.sender);\r\n\r\n        } else if(_betChosen == 50){\r\n            fiftyMultiplyer.push(msg.sender);\r\n\r\n        }\r\n        allBets.push(msg.sender);\r\n        userBets[msg.sender].push(placeBet);\r\n\r\n    }\r\n    //3000000000000000000\r\n\r\n    function _generateRandNum()private returns (uint){\r\n        uint randomnumber = uint(sha256(abi.encodePacked(now, msg.sender, lastBlock))) % 76;\r\n        lastBlock++;\r\n        if(randomnumber >52){\r\n            lastBlock++;\r\n            uint randomnumber2 = uint(sha256(abi.encodePacked(now, msg.sender, lastBlock))) % 76;\r\n\r\n            if(randomnumber2>52){\r\n                randomnumber = randomnumber2 - randomnumber;\r\n            } else{\r\n                randomnumber = randomnumber - randomnumber2;\r\n            }\r\n        }\r\n\r\n        return(randomnumber);\r\n    }\r\n\r\n    function generateRandNum(){\r\n        winningNum = _generateRandNum();\r\n    }\r\n\r\n    function payWinners() public returns (uint){\r\n        generateRandNum();\r\n        emit RandResult(winningNum);\r\n        uint i;\r\n        uint j;\r\n        if (twoMultiplyerValue[winningNum]){\r\n            for( i = 0; i<twoMultiplyer.length;i++){\r\n                for(  j = 0;j<userBets[twoMultiplyer[i]].length;j++){\r\n                    if(userBets[twoMultiplyer[i]][j].betChosen == 2){\r\n                        twoMultiplyer[i].transfer((userBets[twoMultiplyer[i]][j].value*2));\r\n                    }\r\n                }\r\n            }\r\n        } else if (threeMultiplyerValue[winningNum]){\r\n            for( i = 0; i<threeMultiplyer.length;i++){\r\n                for(  j = 0;j<userBets[threeMultiplyer[i]].length;j++){\r\n                    if(userBets[threeMultiplyer[i]][j].betChosen == 3){\r\n                        threeMultiplyer[i].transfer((userBets[threeMultiplyer[i]][j].value*3));\r\n                    }\r\n                }\r\n            }\r\n        }else if (fiveMultiplyerValue[winningNum]){\r\n            for( i = 0; i<fiveMultiplyer.length;i++){\r\n                for(  j = 0;j<userBets[fiveMultiplyer[i]].length;j++){\r\n                    if(userBets[fiveMultiplyer[i]][j].betChosen == 5){\r\n                        fiveMultiplyer[i].transfer((userBets[fiveMultiplyer[i]][j].value*5));\r\n                    }\r\n                }\r\n            }\r\n        }else if (fiftyMultiplyerValue[winningNum]){\r\n            for( i = 0; i<fiftyMultiplyer.length;i++){\r\n                for(  j = 0;j<userBets[fiftyMultiplyer[i]].length;j++){\r\n                    if(userBets[fiftyMultiplyer[i]][j].betChosen == 50){\r\n                        fiftyMultiplyer[i].transfer((userBets[fiftyMultiplyer[i]][j].value*50));\r\n                    }\r\n                }\r\n            }\r\n        }\r\n        delete userBets[msg.sender];\r\n        for(i = 0; i <allBets.length;i++){\r\n            delete userBets[allBets[i]];\r\n        }\r\n        delete twoMultiplyer;\r\n        delete threeMultiplyer;\r\n        delete fiveMultiplyer;\r\n        delete fiftyMultiplyer;\r\n\r\n        return winningNum;\r\n    }\r\n\r\n    function paySmartContract() public payable{\r\n        require(msg.value>0);\r\n    }\r\n\r\n    function returnContractBalance () public view returns(uint256){\r\n        return  address(this).balance;\r\n    }\r\n\r\n\r\n}",
  "sourcePath": "C:\\Users\\Jo\\Downloads\\TRON DEV\\TRXED\\TRXED_MAIN\\tron\\contracts\\TRXED.sol",
  "compiler": {
    "name": "solc",
    "version": "0.4.24-develop.2018.8.28+commit.3ba0cdec.mod.Emscripten.clang"
  },
  "schemaVersion": "2.0.1",
  "updatedAt": "2019-02-14T14:43:49.321Z"
}